{
  "_format": "hh-sol-artifact-1",
  "contractName": "GoldRushDuel",
  "sourceName": "contracts/GoldRushDuel.sol",
  "abi": [
    {
      "inputs": [
        {
          "internalType": "address",
          "name": "_token",
          "type": "address"
        },
        {
          "internalType": "address",
          "name": "_treasury",
          "type": "address"
        }
      ],
      "stateMutability": "nonpayable",
      "type": "constructor"
    },
    {
      "anonymous": false,
      "inputs": [
        {
          "indexed": true,
          "internalType": "uint256",
          "name": "duelId",
          "type": "uint256"
        }
      ],
      "name": "DuelCancelled",
      "type": "event"
    },
    {
      "anonymous": false,
      "inputs": [
        {
          "indexed": true,
          "internalType": "uint256",
          "name": "duelId",
          "type": "uint256"
        },
        {
          "indexed": true,
          "internalType": "address",
          "name": "player1",
          "type": "address"
        },
        {
          "indexed": false,
          "internalType": "uint256",
          "name": "stake",
          "type": "uint256"
        }
      ],
      "name": "DuelCreated",
      "type": "event"
    },
    {
      "anonymous": false,
      "inputs": [
        {
          "indexed": true,
          "internalType": "uint256",
          "name": "duelId",
          "type": "uint256"
        },
        {
          "indexed": true,
          "internalType": "address",
          "name": "winner",
          "type": "address"
        },
        {
          "indexed": false,
          "internalType": "uint256",
          "name": "payout",
          "type": "uint256"
        },
        {
          "indexed": false,
          "internalType": "uint256",
          "name": "fee",
          "type": "uint256"
        }
      ],
      "name": "DuelFinished",
      "type": "event"
    },
    {
      "anonymous": false,
      "inputs": [
        {
          "indexed": true,
          "internalType": "uint256",
          "name": "duelId",
          "type": "uint256"
        },
        {
          "indexed": true,
          "internalType": "address",
          "name": "player2",
          "type": "address"
        }
      ],
      "name": "DuelJoined",
      "type": "event"
    },
    {
      "inputs": [],
      "name": "BPS_DENOMINATOR",
      "outputs": [
        {
          "internalType": "uint256",
          "name": "",
          "type": "uint256"
        }
      ],
      "stateMutability": "view",
      "type": "function"
    },
    {
      "inputs": [],
      "name": "FEE_BPS",
      "outputs": [
        {
          "internalType": "uint256",
          "name": "",
          "type": "uint256"
        }
      ],
      "stateMutability": "view",
      "type": "function"
    },
    {
      "inputs": [
        {
          "internalType": "uint256",
          "name": "duelId",
          "type": "uint256"
        }
      ],
      "name": "cancelDuel",
      "outputs": [],
      "stateMutability": "nonpayable",
      "type": "function"
    },
    {
      "inputs": [
        {
          "internalType": "uint256",
          "name": "_stake",
          "type": "uint256"
        }
      ],
      "name": "createDuel",
      "outputs": [
        {
          "internalType": "uint256",
          "name": "",
          "type": "uint256"
        }
      ],
      "stateMutability": "nonpayable",
      "type": "function"
    },
    {
      "inputs": [],
      "name": "duelCounter",
      "outputs": [
        {
          "internalType": "uint256",
          "name": "",
          "type": "uint256"
        }
      ],
      "stateMutability": "view",
      "type": "function"
    },
    {
      "inputs": [
        {
          "internalType": "uint256",
          "name": "",
          "type": "uint256"
        }
      ],
      "name": "duels",
      "outputs": [
        {
          "internalType": "address",
          "name": "player1",
          "type": "address"
        },
        {
          "internalType": "address",
          "name": "player2",
          "type": "address"
        },
        {
          "internalType": "uint256",
          "name": "stake",
          "type": "uint256"
        },
        {
          "internalType": "address",
          "name": "winner",
          "type": "address"
        },
        {
          "internalType": "enum GoldRushDuel.DuelState",
          "name": "state",
          "type": "uint8"
        }
      ],
      "stateMutability": "view",
      "type": "function"
    },
    {
      "inputs": [
        {
          "internalType": "uint256",
          "name": "duelId",
          "type": "uint256"
        }
      ],
      "name": "joinDuel",
      "outputs": [],
      "stateMutability": "nonpayable",
      "type": "function"
    },
    {
      "inputs": [
        {
          "internalType": "address",
          "name": "_treasury",
          "type": "address"
        }
      ],
      "name": "setTreasury",
      "outputs": [],
      "stateMutability": "nonpayable",
      "type": "function"
    },
    {
      "inputs": [
        {
          "internalType": "uint256",
          "name": "duelId",
          "type": "uint256"
        },
        {
          "internalType": "address",
          "name": "winner",
          "type": "address"
        }
      ],
      "name": "submitWinner",
      "outputs": [],
      "stateMutability": "nonpayable",
      "type": "function"
    },
    {
      "inputs": [],
      "name": "token",
      "outputs": [
        {
          "internalType": "contract IERC20",
          "name": "",
          "type": "address"
        }
      ],
      "stateMutability": "view",
      "type": "function"
    },
    {
      "inputs": [],
      "name": "treasury",
      "outputs": [
        {
          "internalType": "address",
          "name": "",
          "type": "address"
        }
      ],
      "stateMutability": "view",
      "type": "function"
    }
  ],
  "bytecode": "0x60a06040523480156200001157600080fd5b5060405162001f3038038062001f30833981810160405281019062000037919062000126565b60016000819055508173ffffffffffffffffffffffffffffffffffffffff1660808173ffffffffffffffffffffffffffffffffffffffff168152505080600160006101000a81548173ffffffffffffffffffffffffffffffffffffffff021916908373ffffffffffffffffffffffffffffffffffffffff16021790555050506200016d565b600080fd5b600073ffffffffffffffffffffffffffffffffffffffff82169050919050565b6000620000ee82620000c1565b9050919050565b6200010081620000e1565b81146200010c57600080fd5b50565b6000815190506200012081620000f5565b92915050565b6000806040838503121562000140576200013f620000bc565b5b600062000150858286016200010f565b925050602062000163858286016200010f565b9150509250929050565b608051611d84620001ac6000396000818161053c0152818161061901528181610a5201528181610cf001528181610fcd01526111d40152611d846000f3fe608060405234801561001057600080fd5b50600436106100a85760003560e01c8063bf333f2c11610071578063bf333f2c14610169578063d9c312f414610187578063e1a45218146101a3578063e8097b7e146101c1578063f0f44260146101dd578063fc0c546a146101f9576100a8565b8062f7f245146100ad5780631570376e146100c957806361d027b3146100e7578063859a62d014610105578063bdaf46c014610139575b600080fd5b6100c760048036038101906100c291906112e8565b610217565b005b6100d1610777565b6040516100de9190611337565b60405180910390f35b6100ef61077d565b6040516100fc9190611361565b60405180910390f35b61011f600480360381019061011a919061137c565b6107a3565b604051610130959493929190611420565b60405180910390f35b610153600480360381019061014e919061137c565b610846565b6040516101609190611337565b60405180910390f35b610171610b92565b60405161017e9190611337565b60405180910390f35b6101a1600480360381019061019c919061137c565b610b98565b005b6101ab610e2c565b6040516101b89190611337565b60405180910390f35b6101db60048036038101906101d6919061137c565b610e32565b005b6101f760048036038101906101f29190611473565b6110fe565b005b6102016111d2565b60405161020e91906114ff565b60405180910390f35b61021f6111f6565b60006003600084815260200190815260200160002090506001600381111561024a576102496113a9565b5b8160030160149054906101000a900460ff16600381111561026e5761026d6113a9565b5b146102ae576040517f08c379a00000000000000000000000000000000000000000000000000000000081526004016102a590611577565b60405180910390fd5b8060000160009054906101000a900473ffffffffffffffffffffffffffffffffffffffff1673ffffffffffffffffffffffffffffffffffffffff163373ffffffffffffffffffffffffffffffffffffffff16148061035b57508060010160009054906101000a900473ffffffffffffffffffffffffffffffffffffffff1673ffffffffffffffffffffffffffffffffffffffff163373ffffffffffffffffffffffffffffffffffffffff16145b61039a576040517f08c379a0000000000000000000000000000000000000000000000000000000008152600401610391906115e3565b60405180910390fd5b8060000160009054906101000a900473ffffffffffffffffffffffffffffffffffffffff1673ffffffffffffffffffffffffffffffffffffffff168273ffffffffffffffffffffffffffffffffffffffff16148061044757508060010160009054906101000a900473ffffffffffffffffffffffffffffffffffffffff1673ffffffffffffffffffffffffffffffffffffffff168273ffffffffffffffffffffffffffffffffffffffff16145b610486576040517f08c379a000000000000000000000000000000000000000000000000000000000815260040161047d9061164f565b60405180910390fd5b818160030160006101000a81548173ffffffffffffffffffffffffffffffffffffffff021916908373ffffffffffffffffffffffffffffffffffffffff16021790555060028160030160146101000a81548160ff021916908360038111156104f1576104f06113a9565b5b0217905550600060028260020154610509919061169e565b905060006127106101f48361051e919061169e565b610528919061170f565b9050600081836105389190611740565b90507f000000000000000000000000000000000000000000000000000000000000000073ffffffffffffffffffffffffffffffffffffffff1663a9059cbb86836040518363ffffffff1660e01b8152600401610595929190611774565b6020604051808303816000875af11580156105b4573d6000803e3d6000fd5b505050506040513d601f19601f820116820180604052508101906105d891906117d5565b610617576040517f08c379a000000000000000000000000000000000000000000000000000000000815260040161060e9061184e565b60405180910390fd5b7f000000000000000000000000000000000000000000000000000000000000000073ffffffffffffffffffffffffffffffffffffffff1663a9059cbb600160009054906101000a900473ffffffffffffffffffffffffffffffffffffffff16846040518363ffffffff1660e01b8152600401610694929190611774565b6020604051808303816000875af11580156106b3573d6000803e3d6000fd5b505050506040513d601f19601f820116820180604052508101906106d791906117d5565b610716576040517f08c379a000000000000000000000000000000000000000000000000000000000815260040161070d906118ba565b60405180910390fd5b8473ffffffffffffffffffffffffffffffffffffffff16867f87af30aa54e806ce2f05726d62d1a18e56f8a1962f5b05285d3c40eda0083a94838560405161075f9291906118da565b60405180910390a350505050610773611245565b5050565b60025481565b600160009054906101000a900473ffffffffffffffffffffffffffffffffffffffff1681565b60036020528060005260406000206000915090508060000160009054906101000a900473ffffffffffffffffffffffffffffffffffffffff16908060010160009054906101000a900473ffffffffffffffffffffffffffffffffffffffff16908060020154908060030160009054906101000a900473ffffffffffffffffffffffffffffffffffffffff16908060030160149054906101000a900460ff16905085565b60006108506111f6565b60008211610893576040517f08c379a000000000000000000000000000000000000000000000000000000000815260040161088a9061194f565b60405180910390fd5b600260008154809291906108a69061196f565b91905055506040518060a001604052803373ffffffffffffffffffffffffffffffffffffffff168152602001600073ffffffffffffffffffffffffffffffffffffffff168152602001838152602001600073ffffffffffffffffffffffffffffffffffffffff16815260200160006003811115610926576109256113a9565b5b81525060036000600254815260200190815260200160002060008201518160000160006101000a81548173ffffffffffffffffffffffffffffffffffffffff021916908373ffffffffffffffffffffffffffffffffffffffff16021790555060208201518160010160006101000a81548173ffffffffffffffffffffffffffffffffffffffff021916908373ffffffffffffffffffffffffffffffffffffffff1602179055506040820151816002015560608201518160030160006101000a81548173ffffffffffffffffffffffffffffffffffffffff021916908373ffffffffffffffffffffffffffffffffffffffff16021790555060808201518160030160146101000a81548160ff02191690836003811115610a4857610a476113a9565b5b02179055509050507f000000000000000000000000000000000000000000000000000000000000000073ffffffffffffffffffffffffffffffffffffffff166323b872dd3330856040518463ffffffff1660e01b8152600401610aad939291906119b7565b6020604051808303816000875af1158015610acc573d6000803e3d6000fd5b505050506040513d601f19601f82011682018060405250810190610af091906117d5565b610b2f576040517f08c379a0000000000000000000000000000000000000000000000000000000008152600401610b2690611a3a565b60405180910390fd5b3373ffffffffffffffffffffffffffffffffffffffff166002547fd2c008cab3e2faa4367c93db99aca3cd062f88e9459e87d88b19ff8663d3d9ef84604051610b789190611337565b60405180910390a36002549050610b8d611245565b919050565b6101f481565b610ba06111f6565b600060036000838152602001908152602001600020905060006003811115610bcb57610bca6113a9565b5b8160030160149054906101000a900460ff166003811115610bef57610bee6113a9565b5b14610c2f576040517f08c379a0000000000000000000000000000000000000000000000000000000008152600401610c2690611aa6565b60405180910390fd5b8060000160009054906101000a900473ffffffffffffffffffffffffffffffffffffffff1673ffffffffffffffffffffffffffffffffffffffff163373ffffffffffffffffffffffffffffffffffffffff1614610cc1576040517f08c379a0000000000000000000000000000000000000000000000000000000008152600401610cb890611b12565b60405180910390fd5b60038160030160146101000a81548160ff02191690836003811115610ce957610ce86113a9565b5b02179055507f000000000000000000000000000000000000000000000000000000000000000073ffffffffffffffffffffffffffffffffffffffff1663a9059cbb8260000160009054906101000a900473ffffffffffffffffffffffffffffffffffffffff1683600201546040518363ffffffff1660e01b8152600401610d71929190611774565b6020604051808303816000875af1158015610d90573d6000803e3d6000fd5b505050506040513d601f19601f82011682018060405250810190610db491906117d5565b610df3576040517f08c379a0000000000000000000000000000000000000000000000000000000008152600401610dea90611b7e565b60405180910390fd5b817fe6869595d58c61aa991d00acb41ac260a2d3b5a40d58255f6aad94a14c2804a760405160405180910390a250610e29611245565b50565b61271081565b610e3a6111f6565b600060036000838152602001908152602001600020905060006003811115610e6557610e646113a9565b5b8160030160149054906101000a900460ff166003811115610e8957610e886113a9565b5b14610ec9576040517f08c379a0000000000000000000000000000000000000000000000000000000008152600401610ec090611bea565b60405180910390fd5b3373ffffffffffffffffffffffffffffffffffffffff168160000160009054906101000a900473ffffffffffffffffffffffffffffffffffffffff1673ffffffffffffffffffffffffffffffffffffffff1603610f5b576040517f08c379a0000000000000000000000000000000000000000000000000000000008152600401610f5290611c56565b60405180910390fd5b338160010160006101000a81548173ffffffffffffffffffffffffffffffffffffffff021916908373ffffffffffffffffffffffffffffffffffffffff16021790555060018160030160146101000a81548160ff02191690836003811115610fc657610fc56113a9565b5b02179055507f000000000000000000000000000000000000000000000000000000000000000073ffffffffffffffffffffffffffffffffffffffff166323b872dd333084600201546040518463ffffffff1660e01b815260040161102c939291906119b7565b6020604051808303816000875af115801561104b573d6000803e3d6000fd5b505050506040513d601f19601f8201168201806040525081019061106f91906117d5565b6110ae576040517f08c379a00000000000000000000000000000000000000000000000000000000081526004016110a590611a3a565b60405180910390fd5b3373ffffffffffffffffffffffffffffffffffffffff16827f2be0d3826f37a8de3c1b301652c7dab4429fc3dfe5685e6ce0947666cb32401d60405160405180910390a3506110fb611245565b50565b600160009054906101000a900473ffffffffffffffffffffffffffffffffffffffff1673ffffffffffffffffffffffffffffffffffffffff163373ffffffffffffffffffffffffffffffffffffffff161461118e576040517f08c379a000000000000000000000000000000000000000000000000000000000815260040161118590611cc2565b60405180910390fd5b80600160006101000a81548173ffffffffffffffffffffffffffffffffffffffff021916908373ffffffffffffffffffffffffffffffffffffffff16021790555050565b7f000000000000000000000000000000000000000000000000000000000000000081565b60026000540361123b576040517f08c379a000000000000000000000000000000000000000000000000000000000815260040161123290611d2e565b60405180910390fd5b6002600081905550565b6001600081905550565b600080fd5b6000819050919050565b61126781611254565b811461127257600080fd5b50565b6000813590506112848161125e565b92915050565b600073ffffffffffffffffffffffffffffffffffffffff82169050919050565b60006112b58261128a565b9050919050565b6112c5816112aa565b81146112d057600080fd5b50565b6000813590506112e2816112bc565b92915050565b600080604083850312156112ff576112fe61124f565b5b600061130d85828601611275565b925050602061131e858286016112d3565b9150509250929050565b61133181611254565b82525050565b600060208201905061134c6000830184611328565b92915050565b61135b816112aa565b82525050565b60006020820190506113766000830184611352565b92915050565b6000602082840312156113925761139161124f565b5b60006113a084828501611275565b91505092915050565b7f4e487b7100000000000000000000000000000000000000000000000000000000600052602160045260246000fd5b600481106113e9576113e86113a9565b5b50565b60008190506113fa826113d8565b919050565b600061140a826113ec565b9050919050565b61141a816113ff565b82525050565b600060a0820190506114356000830188611352565b6114426020830187611352565b61144f6040830186611328565b61145c6060830185611352565b6114696080830184611411565b9695505050505050565b6000602082840312156114895761148861124f565b5b6000611497848285016112d3565b91505092915050565b6000819050919050565b60006114c56114c06114bb8461128a565b6114a0565b61128a565b9050919050565b60006114d7826114aa565b9050919050565b60006114e9826114cc565b9050919050565b6114f9816114de565b82525050565b600060208201905061151460008301846114f0565b92915050565b600082825260208201905092915050565b7f4475656c206e6f7420696e2070726f6772657373000000000000000000000000600082015250565b600061156160148361151a565b915061156c8261152b565b602082019050919050565b6000602082019050818103600083015261159081611554565b9050919050565b7f4e6f74206120706c617965720000000000000000000000000000000000000000600082015250565b60006115cd600c8361151a565b91506115d882611597565b602082019050919050565b600060208201905081810360008301526115fc816115c0565b9050919050565b7f496e76616c69642077696e6e6572000000000000000000000000000000000000600082015250565b6000611639600e8361151a565b915061164482611603565b602082019050919050565b600060208201905081810360008301526116688161162c565b9050919050565b7f4e487b7100000000000000000000000000000000000000000000000000000000600052601160045260246000fd5b60006116a982611254565b91506116b483611254565b92508282026116c281611254565b915082820484148315176116d9576116d861166f565b5b5092915050565b7f4e487b7100000000000000000000000000000000000000000000000000000000600052601260045260246000fd5b600061171a82611254565b915061172583611254565b925082611735576117346116e0565b5b828204905092915050565b600061174b82611254565b915061175683611254565b925082820390508181111561176e5761176d61166f565b5b92915050565b60006040820190506117896000830185611352565b6117966020830184611328565b9392505050565b60008115159050919050565b6117b28161179d565b81146117bd57600080fd5b50565b6000815190506117cf816117a9565b92915050565b6000602082840312156117eb576117ea61124f565b5b60006117f9848285016117c0565b91505092915050565b7f5061796f7574206661696c656400000000000000000000000000000000000000600082015250565b6000611838600d8361151a565b915061184382611802565b602082019050919050565b600060208201905081810360008301526118678161182b565b9050919050565b7f466565207472616e73666572206661696c656400000000000000000000000000600082015250565b60006118a460138361151a565b91506118af8261186e565b602082019050919050565b600060208201905081810360008301526118d381611897565b9050919050565b60006040820190506118ef6000830185611328565b6118fc6020830184611328565b9392505050565b7f5374616b65206d75737420626520706f73697469766500000000000000000000600082015250565b600061193960168361151a565b915061194482611903565b602082019050919050565b600060208201905081810360008301526119688161192c565b9050919050565b600061197a82611254565b91507fffffffffffffffffffffffffffffffffffffffffffffffffffffffffffffffff82036119ac576119ab61166f565b5b600182019050919050565b60006060820190506119cc6000830186611352565b6119d96020830185611352565b6119e66040830184611328565b949350505050565b7f5374616b65207472616e73666572206661696c65640000000000000000000000600082015250565b6000611a2460158361151a565b9150611a2f826119ee565b602082019050919050565b60006020820190508181036000830152611a5381611a17565b9050919050565b7f43616e6e6f742063616e63656c00000000000000000000000000000000000000600082015250565b6000611a90600d8361151a565b9150611a9b82611a5a565b602082019050919050565b60006020820190508181036000830152611abf81611a83565b9050919050565b7f4f6e6c792063726561746f722063616e2063616e63656c000000000000000000600082015250565b6000611afc60178361151a565b9150611b0782611ac6565b602082019050919050565b60006020820190508181036000830152611b2b81611aef565b9050919050565b7f526566756e64206661696c656400000000000000000000000000000000000000600082015250565b6000611b68600d8361151a565b9150611b7382611b32565b602082019050919050565b60006020820190508181036000830152611b9781611b5b565b9050919050565b7f4475656c206e6f74206f70656e00000000000000000000000000000000000000600082015250565b6000611bd4600d8361151a565b9150611bdf82611b9e565b602082019050919050565b60006020820190508181036000830152611c0381611bc7565b9050919050565b7f43616e6e6f74206a6f696e20796f7572206f776e206475656c00000000000000600082015250565b6000611c4060198361151a565b9150611c4b82611c0a565b602082019050919050565b60006020820190508181036000830152611c6f81611c33565b9050919050565b7f4f6e6c792074726561737572792063616e207570646174650000000000000000600082015250565b6000611cac60188361151a565b9150611cb782611c76565b602082019050919050565b60006020820190508181036000830152611cdb81611c9f565b9050919050565b7f5265656e7472616e637947756172643a207265656e7472616e742063616c6c00600082015250565b6000611d18601f8361151a565b9150611d2382611ce2565b602082019050919050565b60006020820190508181036000830152611d4781611d0b565b905091905056fea26469706673582212203576d912edf2a975911d71dfc3801c53e5b2bf56e9532a418f8d7ebf54bb039564736f6c63430008140033",
  "linkReferences": {},
  "deployedLinkReferences": {}
}